{
  "_format": "hh-sol-artifact-1",
  "contractName": "EtherPortal",
  "sourceName": "contracts/EtherPortal.sol",
  "abi": [
    {
      "inputs": [],
      "stateMutability": "payable",
      "type": "constructor"
    },
    {
      "anonymous": false,
      "inputs": [
        {
          "indexed": true,
          "internalType": "address",
          "name": "from",
          "type": "address"
        },
        {
          "indexed": false,
          "internalType": "uint256",
          "name": "timestamp",
          "type": "uint256"
        },
        {
          "indexed": false,
          "internalType": "string",
          "name": "message",
          "type": "string"
        }
      ],
      "name": "NewGreeting",
      "type": "event"
    },
    {
      "inputs": [],
      "name": "getAllHellos",
      "outputs": [
        {
          "components": [
            {
              "internalType": "address",
              "name": "sender",
              "type": "address"
            },
            {
              "internalType": "string",
              "name": "message",
              "type": "string"
            },
            {
              "internalType": "uint256",
              "name": "timestamp",
              "type": "uint256"
            }
          ],
          "internalType": "struct EtherPortal.Hello[]",
          "name": "",
          "type": "tuple[]"
        }
      ],
      "stateMutability": "view",
      "type": "function"
    },
    {
      "inputs": [],
      "name": "getTotalHellos",
      "outputs": [
        {
          "internalType": "uint256",
          "name": "",
          "type": "uint256"
        }
      ],
      "stateMutability": "view",
      "type": "function"
    },
    {
      "inputs": [
        {
          "internalType": "address",
          "name": "",
          "type": "address"
        }
      ],
      "name": "lastWavedAt",
      "outputs": [
        {
          "internalType": "uint256",
          "name": "",
          "type": "uint256"
        }
      ],
      "stateMutability": "view",
      "type": "function"
    },
    {
      "inputs": [
        {
          "internalType": "string",
          "name": "_message",
          "type": "string"
        }
      ],
      "name": "sayHello",
      "outputs": [],
      "stateMutability": "nonpayable",
      "type": "function"
    }
  ],
  "bytecode": "0x60806040526200004f6040518060400160405280602081526020017f457468657265756d20506f7274616c2047657474696e672052656164792021218152506200007760201b6200066c1760201c565b606444426200005f9190620001c4565b6200006b919062000261565b60028190555062000308565b62000117816040516024016200008e919062000184565b6040516020818303038152906040527f41304fac000000000000000000000000000000000000000000000000000000007bffffffffffffffffffffffffffffffffffffffffffffffffffffffff19166020820180517bffffffffffffffffffffffffffffffffffffffffffffffffffffffff83818316178352505050506200011a60201b60201c565b50565b60008151905060006a636f6e736f6c652e6c6f679050602083016000808483855afa5050505050565b60006200015082620001a8565b6200015c8185620001b3565b93506200016e8185602086016200022b565b6200017981620002f7565b840191505092915050565b60006020820190508181036000830152620001a0818462000143565b905092915050565b600081519050919050565b600082825260208201905092915050565b6000620001d18262000221565b9150620001de8362000221565b9250827fffffffffffffffffffffffffffffffffffffffffffffffffffffffffffffffff0382111562000216576200021562000299565b5b828201905092915050565b6000819050919050565b60005b838110156200024b5780820151818401526020810190506200022e565b838111156200025b576000848401525b50505050565b60006200026e8262000221565b91506200027b8362000221565b9250826200028e576200028d620002c8565b5b828206905092915050565b7f4e487b7100000000000000000000000000000000000000000000000000000000600052601160045260246000fd5b7f4e487b7100000000000000000000000000000000000000000000000000000000600052601260045260246000fd5b6000601f19601f8301169050919050565b61125d80620003186000396000f3fe608060405234801561001057600080fd5b506004361061004c5760003560e01c8063a42a466314610051578063c3a9b1c514610081578063ee5519161461009d578063f6908057146100bb575b600080fd5b61006b60048036038101906100669190610a25565b6100d9565b6040516100789190610ec0565b60405180910390f35b61009b60048036038101906100969190610a4e565b6100f1565b005b6100a56104d0565b6040516100b29190610ec0565b60405180910390f35b6100c361051b565b6040516100d09190610d77565b60405180910390f35b60036020528060005260406000206000915090505481565b42601e600360003373ffffffffffffffffffffffffffffffffffffffff1673ffffffffffffffffffffffffffffffffffffffff1681526020019081526020016000205461013e9190610fdd565b1061017e576040517f08c379a000000000000000000000000000000000000000000000000000000000815260040161017590610ea0565b60405180910390fd5b42600360003373ffffffffffffffffffffffffffffffffffffffff1673ffffffffffffffffffffffffffffffffffffffff1681526020019081526020016000208190555060016000808282546101d49190610fdd565b925050819055506101fe6040518060600160405280602f81526020016111f9602f91393383610705565b600160405180606001604052803373ffffffffffffffffffffffffffffffffffffffff16815260200183815260200142815250908060018154018082558091505060019003906000526020600020906003020160009091909190915060008201518160000160006101000a81548173ffffffffffffffffffffffffffffffffffffffff021916908373ffffffffffffffffffffffffffffffffffffffff16021790555060208201518160010190805190602001906102bd929190610905565b50604082015181600201555050606460025442446102db9190610fdd565b6102e59190610fdd565b6102ef91906110e3565b6002819055506103366040518060400160405280601681526020017f52616e646f6d20232067656e6572617465643a202564000000000000000000008152506002546107a4565b6032600254101561047d576103806040518060400160405280600781526020017f257320776f6e210000000000000000000000000000000000000000000000000081525033610840565b6000655af3107a40009050478111156103ce576040517f08c379a00000000000000000000000000000000000000000000000000000000081526004016103c590610e60565b60405180910390fd5b60003373ffffffffffffffffffffffffffffffffffffffff16826040516103f490610d62565b60006040518083038185875af1925050503d8060008114610431576040519150601f19603f3d011682016040523d82523d6000602084013e610436565b606091505b505090508061047a576040517f08c379a000000000000000000000000000000000000000000000000000000000815260040161047190610e80565b60405180910390fd5b50505b3373ffffffffffffffffffffffffffffffffffffffff167fac7671fb68790e696e41047a5a37814aa8fcb440624d96b496c27b20b0e03bcd42836040516104c5929190610edb565b60405180910390a250565b60006105136040518060400160405280602081526020017f5765206861766520256420746f74616c206772656574696e6773203a2d2920218152506000546107a4565b600054905090565b60606001805480602002602001604051908101604052809291908181526020016000905b8282101561066357838290600052602060002090600302016040518060600160405290816000820160009054906101000a900473ffffffffffffffffffffffffffffffffffffffff1673ffffffffffffffffffffffffffffffffffffffff1673ffffffffffffffffffffffffffffffffffffffff1681526020016001820180546105c8906110b1565b80601f01602080910402602001604051908101604052809291908181526020018280546105f4906110b1565b80156106415780601f1061061657610100808354040283529160200191610641565b820191906000526020600020905b81548152906001019060200180831161062457829003601f168201915b505050505081526020016002820154815250508152602001906001019061053f565b50505050905090565b610702816040516024016106809190610d99565b6040516020818303038152906040527f41304fac000000000000000000000000000000000000000000000000000000007bffffffffffffffffffffffffffffffffffffffffffffffffffffffff19166020820180517bffffffffffffffffffffffffffffffffffffffffffffffffffffffff83818316178352505050506108dc565b50565b61079f83838360405160240161071d93929190610deb565b6040516020818303038152906040527fe0e9ad4f000000000000000000000000000000000000000000000000000000007bffffffffffffffffffffffffffffffffffffffffffffffffffffffff19166020820180517bffffffffffffffffffffffffffffffffffffffffffffffffffffffff83818316178352505050506108dc565b505050565b61083c82826040516024016107ba929190610e30565b6040516020818303038152906040527f9710a9d0000000000000000000000000000000000000000000000000000000007bffffffffffffffffffffffffffffffffffffffffffffffffffffffff19166020820180517bffffffffffffffffffffffffffffffffffffffffffffffffffffffff83818316178352505050506108dc565b5050565b6108d88282604051602401610856929190610dbb565b6040516020818303038152906040527f319af333000000000000000000000000000000000000000000000000000000007bffffffffffffffffffffffffffffffffffffffffffffffffffffffff19166020820180517bffffffffffffffffffffffffffffffffffffffffffffffffffffffff83818316178352505050506108dc565b5050565b60008151905060006a636f6e736f6c652e6c6f679050602083016000808483855afa5050505050565b828054610911906110b1565b90600052602060002090601f016020900481019282610933576000855561097a565b82601f1061094c57805160ff191683800117855561097a565b8280016001018555821561097a579182015b8281111561097957825182559160200191906001019061095e565b5b509050610987919061098b565b5090565b5b808211156109a457600081600090555060010161098c565b5090565b60006109bb6109b684610f3c565b610f0b565b9050828152602081018484840111156109d357600080fd5b6109de84828561106f565b509392505050565b6000813590506109f5816111e1565b92915050565b600082601f830112610a0c57600080fd5b8135610a1c8482602086016109a8565b91505092915050565b600060208284031215610a3757600080fd5b6000610a45848285016109e6565b91505092915050565b600060208284031215610a6057600080fd5b600082013567ffffffffffffffff811115610a7a57600080fd5b610a86848285016109fb565b91505092915050565b6000610a9b8383610cf4565b905092915050565b610aac81611033565b82525050565b610abb81611033565b82525050565b6000610acc82610f7c565b610ad68185610f9f565b935083602082028501610ae885610f6c565b8060005b85811015610b245784840389528151610b058582610a8f565b9450610b1083610f92565b925060208a01995050600181019050610aec565b50829750879550505050505092915050565b6000610b4182610f87565b610b4b8185610fbb565b9350610b5b81856020860161107e565b610b64816111d0565b840191505092915050565b6000610b7a82610f87565b610b848185610fcc565b9350610b9481856020860161107e565b610b9d816111d0565b840191505092915050565b6000610bb5603483610fcc565b91507f547279696e6720746f207769746864726177206d6f7265206d6f6e657920746860008301527f616e2074686520636f6e7472616374206861732e0000000000000000000000006020830152604082019050919050565b6000610c1b602783610fcc565b91507f4661696c656420746f207769746864726177206d6f6e65792066726f6d20636f60008301527f6e74726163742e000000000000000000000000000000000000000000000000006020830152604082019050919050565b6000610c81602983610fcc565b91507f4d7573742077616974203330207365636f6e6473206265666f7265207761766960008301527f6e6720616761696e2e00000000000000000000000000000000000000000000006020830152604082019050919050565b6000610ce7600083610fb0565b9150600082019050919050565b6000606083016000830151610d0c6000860182610aa3565b5060208301518482036020860152610d248282610b36565b9150506040830151610d396040860182610d44565b508091505092915050565b610d4d81611065565b82525050565b610d5c81611065565b82525050565b6000610d6d82610cda565b9150819050919050565b60006020820190508181036000830152610d918184610ac1565b905092915050565b60006020820190508181036000830152610db38184610b6f565b905092915050565b60006040820190508181036000830152610dd58185610b6f565b9050610de46020830184610ab2565b9392505050565b60006060820190508181036000830152610e058186610b6f565b9050610e146020830185610ab2565b8181036040830152610e268184610b6f565b9050949350505050565b60006040820190508181036000830152610e4a8185610b6f565b9050610e596020830184610d53565b9392505050565b60006020820190508181036000830152610e7981610ba8565b9050919050565b60006020820190508181036000830152610e9981610c0e565b9050919050565b60006020820190508181036000830152610eb981610c74565b9050919050565b6000602082019050610ed56000830184610d53565b92915050565b6000604082019050610ef06000830185610d53565b8181036020830152610f028184610b6f565b90509392505050565b6000604051905081810181811067ffffffffffffffff82111715610f3257610f316111a1565b5b8060405250919050565b600067ffffffffffffffff821115610f5757610f566111a1565b5b601f19601f8301169050602081019050919050565b6000819050602082019050919050565b600081519050919050565b600081519050919050565b6000602082019050919050565b600082825260208201905092915050565b600081905092915050565b600082825260208201905092915050565b600082825260208201905092915050565b6000610fe882611065565b9150610ff383611065565b9250827fffffffffffffffffffffffffffffffffffffffffffffffffffffffffffffffff0382111561102857611027611114565b5b828201905092915050565b600061103e82611045565b9050919050565b600073ffffffffffffffffffffffffffffffffffffffff82169050919050565b6000819050919050565b82818337600083830152505050565b60005b8381101561109c578082015181840152602081019050611081565b838111156110ab576000848401525b50505050565b600060028204905060018216806110c957607f821691505b602082108114156110dd576110dc611172565b5b50919050565b60006110ee82611065565b91506110f983611065565b92508261110957611108611143565b5b828206905092915050565b7f4e487b7100000000000000000000000000000000000000000000000000000000600052601160045260246000fd5b7f4e487b7100000000000000000000000000000000000000000000000000000000600052601260045260246000fd5b7f4e487b7100000000000000000000000000000000000000000000000000000000600052602260045260246000fd5b7f4e487b7100000000000000000000000000000000000000000000000000000000600052604160045260246000fd5b6000601f19601f8301169050919050565b6111ea81611033565b81146111f557600080fd5b5056fe2573206861732061206772656574696e6720666f7220796f75207769746820746865206d6573736167653a20257321a26469706673582212200010d5ed92ffb0162fc29975880b4dd37be25083ba18141a1b36515deb5e3bad64736f6c63430008000033",
  "linkReferences": {},
  "deployedLinkReferences": {}
}